:040000008A157C28B9
:10000800FF00030E8301EF000A088316B3008A017C
:1000180070088312A2000B1C22288B11061E1728B9
:100028008E018F011014061A21280F08EA00E90131
:100038000E08E9040030EA0410100B108B15220892
:10004800F000831633088A0083126F0E8300FF0EB8
:040058007F0E09000E
:04005C000000080098
:10006000083083120313FC002330FD00FD0B3628FB
:06007000FC0B362808001D
:10007600103083120313FD00FD0B3F28000008001B
:1000860083120313FB01FA01F901F801A001730DB4
:10009600F80D7408F8027508031C750FF902760846
:1000A600031C760FFA027708031C770FFB02000188
:1000B600031C0130A002F30D0730FC00730DF80D90
:1000C600F90DFA0DFB0DA00D7408731C7C28F802BF
:1000D6007508031C750FF9027608031C760FFA02E1
:1000E6007708031C770FFB020001031C0130A002F6
:1000F6008D28F80775080318750FF9077608031891
:10010600760FFA0777080318770FFB070001031825
:100116000130A007F30DFC0B6128720DF80DF90DE7
:10012600FA0DFB0DA00D7408731CAB28F8027508B8
:10013600031C750FF9027608031C760FFA0277087E
:10014600031C770FFB020001031C0130A002BC2830
:10015600F80775080318750FF90776080318760F60
:10016600FA0777080318770FFB0700010318013019
:10017600A007F20D0730FC00720DF80DF90DFA0D0F
:10018600FB0DA00D7408721CDA28F8027508031C12
:10019600750FF9027608031C760FFA027708031C1E
:1001A600770FFB020001031C0130A002EB28F807C1
:1001B60075080318750FF90776080318760FFA07FE
:1001C60077080318770FFB07000103180130A00713
:1001D600F20DFC0BBF28710DF80DF90DFA0DFB0D94
:1001E600A00D7408721C0929F8027508031C750F06
:1001F600F9027608031C760FFA027708031C770FBC
:10020600FB020001031C0130A0021A29F807750839
:100216000318750FF90776080318760FFA0777089B
:100226000318770FFB07000103180130A007F10D33
:100236000730FC00710DF80DF90DFA0DFB0DA00D40
:100246007408711C3829F8027508031C750FF90229
:100256007608031C760FFA027708031C770FFB0259
:100266000001031C0130A0024929F807750803188C
:10027600750FF90776080318760FFA07770803183B
:10028600770FFB07000103180130A007F10DFC0BE7
:100296001D29700DF80DF90DFA0DFB0DA00D740852
:1002A600711C6729F8027508031C750FF902760898
:1002B600031C760FFA027708031C770FFB02000176
:1002C600031C0130A0027829F80775080318750F7A
:1002D600F90776080318760FFA0777080318770FD9
:1002E600FB07000103180130A007F00D0730FC00E2
:1002F600700DF80DF90DFA0DFB0DA00D7408701CAC
:100306009629F8027508031C750FF9027608031C76
:10031600760FFA027708031C770FFB020001031C15
:100326000130A002A729F80775080318750FF90709
:1003360076080318760FFA0777080318770FFB0776
:10034600000103180130A007F00DFC0B7B29701883
:10035600BA297408F80775080318750FF90776089F
:100366000318760FFA0777080318770FFB070800BC
:10037600A03083120313F0000F30F100F201F301F5
:0203860008006D
:10038800831203132230FC00F801F901FA01FB0182
:10039800FC030319FA290310FB0CFA0CF90CF80CEE
:1003A800F30CF20CF10CF00C031CCC29FC03031920
:1003B800EC297408F80775080318750FF90776080B
:1003C8000318760FFA0777080318770FFB07D02969
:1003D8007408F80775080318750FF90776080318E5
:0E03E800760FFA0777080318770FFB07080057
:1003F60083160313CD03CD034D08003C0318082ACA
:10040600CD03000000000000FF29000000000000EE
:06041600000000000800D8
:10041C0083120313F801F9011030FC00710DF80D73
:10042C00F90D7408F8027508031C750FF90203180E
:10043C00262A7408F80775080318750FF9070310B6
:0A044C00F00DF10DFC0B142A08005E
:10045600FB14FB1F352AFF30F300F200F100F00019
:08046600FA0DF20CFF30080052
:08046E00FA1FF2130030080030
:100476007B15FB1F452A0130F300F201F101F00163
:08048600FA0DF20CFF30080032
:0E048E00F201F101F001F801F3010030080065
:10049C0083160313CD1B552A83128712572A8312F6
:1004AC00871683164D1B5D2A831207125F2A83124F
:1004BC0007168316CD1A652A83128711672A8312B1
:1004CC00871583164D1A6D2A831207116F2A831212
:1004DC0007156B18732A0714742A071087142E201B
:1004EC0087108316CD197D2A831287127F2A8312D7
:1004FC00871683164D19852A83120712872A8312B1
:10050C0007168316CD188D2A831287118F2A831212
:10051C00871583164D18952A83120711972A831273
:10052C0007156B189B2A07149C2A071087142E207A
:0E053C0087106B1CA32A3020A42A3B20080045
:10054A00A1017208031DBA2A7108F2007008F100AD
:10055A00F001A1157208031DBA2A7108F200F1010F
:10056A00A111211672080319C82A2108F302031DD2
:10057A00031CCC2A0310F21BD02AF00DF10DF20D48
:10058A00F30BC02ACC2A0130FC004722D32A0230BE
:0E059A00FC003B22D32A0430FC00372208006C
:1005A80083120313FD01F80170080319003474065F
:1005B800FA00FA1BFD09FB01F41FE42AF409F40A06
:1005C800F01FE82AF009F00A70087404FA00FA1B10
:1005D8000C2B7408F802F00D700DF80D7408F8076C
:1005E800F00D0630FC00700DF80D74087018F80254
:1005F800701CF807F00DFC0BF72A701CF8077B1825
:100608001A2BFD1F0034F009F00AF809F80A003423
:10061800F41F172BF01B142B7008F800F001052BA2
:10062800F001F00A0034F009FB0AED2AF80A740810
:100638007802031D052BF801F00AF01F052BFF3483
:020648000800A8
:10064A00831203136B1083164108CD004E226B14DC
:02065A00080096
:0E065C008312031368088A00670882000800F2
:10066A00BB21E830F4000330F500F601F701C4219C
:10067A0070088316C9007108CA007208CB00730893
:10068A00CC004108F4004208F500F601F7014320C6
:10069A0070088316C9007108CA007208CB00730873
:1006AA00CC007008F5007108F6007208F7007308AC
:1006BA00F800F80CF70CF60CF50CF813F80CF70C1C
:1006CA00F60CF50CF8137508F0007608F1007708B7
:1006DA00F2007808F300F30CF20CF10CF00CF313AF
:1006EA007008C5007108C600BB2183164308F400D0
:1006FA004408F500F601F701C42183164508F900FC
:10070A004608FA00FB01FC010330F8007908F400FE
:10071A007A08F5007B08F6007C08F70078080319C8
:10072A009D2BF40DF50DF60DF70D7410FF3E942B6D
:10073A00432070088316C9007108CA007208CB00EA
:10074A007308CC000A30F4000030F5004508F000C8
:10075A004608F1000E2270088316C5007108C6000B
:10076A0000307102031DBB2B033070020318BE2B2D
:10077A00122C83126E08840083164C08003C031D59
:10078A00D02B4B08003C031DD02B4A08003C031D0C
:10079A00D02B4908003C03180F2C83126D088004E3
:1007AA00831646080319E92BC701C801003048021D
:1007BA00031DE12B460847020318E92BCD01FB2153
:1007CA00C70A0319C80ADB2B4508CD00FB2183128F
:1007DA006C088005831646080319032CC701C80153
:1007EA0000304802031DFB2B460847020318032C5E
:1007FA00CD01FB21C70A0319C80AF52B4508CD000C
:10080A00FB210130C902031CCA02031CCB02031CD0
:0C081A00CC02C12B83126C088005080082
:1008260083120313FA017308031D7A147708031D54
:10083600FA147A0803195F2C033A03192A2C7A183A
:10084600272CF61F5D2C5B2CF21F5B2C5D2C72088F
:100856008039FA00F21376088039F6137A060319FE
:10086600382C7A0803195B2C5D2C77087302031960
:100876003F2C031C532C572C760872020319462C66
:10088600031C532C572C7508710203194D2C031C9D
:10089600532C572C7408700203195F2C0318572C1D
:1008A600FA0803195D2C5B2CFA0803195B2C5D2CE6
:1008B60003140800031008000314031508000800B9
:1008C600831603134108F2007208F100F20A420887
:1008D600F000C20A700884000008F0007108840065
:1008E6007008800071088400000803197B2C672CAF
:0608F6004108F0000800BB
:1008FC0083120313FB017308031D77080319D52C0E
:10090C0072087606FA007708F3077E30031C922CE7
:10091C00F3020318D82C952CF302031CDB2C720861
:10092C00F8007108FC007008FD00F817F6170310AA
:10093C00F201F101F0011830A1007D1CAF2C7408FC
:10094C00F00775080318750FF10776080318760F72
:10095C00F207F20CF10CF00CF80CFC0CFD0C031073
:10096C00A10BA32CF21BBF2CF80DF00DF10DF20D09
:10097C00F3037B1B701CD12CF81FD12CF00A03192C
:10098C00F10A0319F20A031DD12CF20CF10CF00C34
:10099C00F30A0319D82CFA1FF2130030DD2C0130A6
:1009AC004722DD2C02302B22DD2C04303B220000B0
:0209BC00080031
:1009BE00F43083160313C1000130C200C830C300E7
:0609CE00C40135230800FE
:1009D400E83083160313C1000330C200D030C300D3
:0809E4000730C40035230800B0
:1009EC00831203137008F8007108F000F101F20192
:1009FC00F301FB01FC019630F300FA017008F100E1
:0C0A0C007808F000F801F201A5220800B3
:100A180083160313B501B6013408F2003408F30055
:100A2800720884000008203A031D1F2D350836047B
:100A3800031D1F2D2C2D0130B5000030B6007208A3
:100A480084000008F0007308840070088000F30A2E
:100A58007208F100F20A710884000008003A031DC8
:080A6800142D3408F000080011
:100A700083160313BF01C0013408BB003508BC0056
:100A80003608BD003708BE003E08FF3A031D522D50
:100A90003D08FF3A031D522D3C08FF3A031D522D1D
:100AA0003B08FF3A031D5C2D3808C1005730C200D7
:100AB00063240330F0003D2F0130B900BD1F6B2DC2
:100AC00080303D06F0007008BD00B90A3808840087
:100AD0002D308000B80A0030F0003E06031D7A2D4C
:100AE00070083D06031D7A2D70083C06031D7A2D03
:100AF0003B08003A031D832D3808C1004A30C2006C
:100B00006324F0013D2F3E08FF3A031D912D3D085F
:100B1000003A031D912D3C08003A031D912D3B081E
:100B2000003A031D9B2D3808C1004630C2006324E3
:100B30003908F0003D2F0030F4000030F50000309F
:100B4000F6007F30F7003B08F0003C08F1003D085C
:100B5000F2003E08F3001324013003180030F000C7
:100B600070080319D02D83163B08F0003C08F100F3
:100B70003D08F2003E08F3000030F4000030F500BC
:100B80002030F6008230F7007E2470088316BB0008
:100B90007108BC007208BD007308BE00C0039B2D25
:100BA00083160030F4000030F5002030F60082306B
:100BB000F7003B08F0003C08F1003D08F2003E0859
:100BC000F30013240130031C0030F00070080319F7
:100BD000062E83163B08F0003C08F1003D08F200A9
:100BE0003E08F300CD30F400CC30F5004C30F60078
:100BF0007B30F7007E2470088316BB007108BC00B0
:100C00007208BD007308BE00C00AD02D8316FF30E5
:100C10003B05F800FF303C05F9007F303D05FA0048
:100C200000303E05FB007808F4007908F5007A08EA
:100C3000F6007B08F700F40DF50DF60DF70D7410B6
:100C400000303B05F00000303C05F10000303D0570
:100C5000F200FF303E05F3007008BB007108BC00D5
:100C60007208BD007308BE0074083B04F0007508EC
:100C70003C04F10076083D04F20077083E04F300DE
:100C80007008BB007108BC007208BD007308BE008C
:100C90007F303E02F0007008BA000130BE007008DC
:100CA000F4003B08F0003C08F1003D08F2003E086B
:100CB000F30074080319632EF00DF10DF20DF30D1E
:100CC0007010FF3E5A2E7008BB007108BC007208FD
:100CD000BD007308BE003E08303EF00038088400B6
:100CE00070088000B80A80304006F0008030013A79
:100CF0007002031C842E8030063AF00080304006DB
:100D00007002031C842E8B2E380884002E30800045
:100D1000B80A0130BF000630BA003A08003A031999
:100D2000E92EBE013B08F0003C08F1003D08F2004E
:100D30003E08F300F00DF10DF20DF30D7010F00D03
:100D4000F10DF20DF30D70103B08F0073C0803188D
:100D50003C0FF1073D0803183D0FF2073E0803184A
:100D60003E0FF3077008BB007108BC007208BD009D
:100D70007308BE003B08F0003C08F1003D08F2009B
:100D80003E08F300F00DF10DF20DF30D7010700838
:100D9000BB007108BC007208BD007308BE003E08AD
:100DA000303EF0003808840070088000B80A3F0820
:100DB000003A031DE72EC0034008003A031DE72E4A
:100DC000380884002E308000B80A0130BF00BA0312
:100DD0008D2EFF30380784000008303A031DF22EB4
:100DE000B803E92EFF303807840000082E3A031DAF
:100DF000FA2EB8034008003A0319392F3808840046
:100E000065308000B80A80304006F0008030003A3B
:100E100070020318132F380884002D308000B80AA0
:100E20004008003CC0004008BA008030093AF00099
:100E300080304006700203182A2F0A30F4003A0866
:100E4000F000D4223030F007831638088400700890
:100E50008000B80A0A30F4003A08F000D42278087A
:100E6000F0003030F00783163808840070088000E6
:0C0E7000B80A380884008001F001080076
:100E7C00BC3083160313C1000230C200BC30C30067
:080E8C000230C4003523080008
:100E94008316031334088312EE0083163508F10019
:100EA4000130F000710803195B2FF00D7010FF3E44
:100EB400552F70088312ED00F0097008EC008030A3
:100EC4008316340784007008800584137008800535
:020ED400080014
:100ED6002E238A110A128000840AE70A0319E80AF7
:080EE600F003031D6B2F08004F
:100EEE00892F803083160313B4009C2FC030B400BA
:100EFE009C2F9430B4009C2FD430B4009C2F8030A3
:100F0E00B4009C2F831603133408013A0319782F6B
:100F1E003408023A03197D2F3408033A0319802F3F
:100F2E003408043A0319832F862F3503F000340852
:100F3E00F0077008B4007008CD004E226B108316B7
:100F4E00B70137083607840000080319B72F370892
:100F5E00360784000008C10025238316B70AA82F80
:060F6E0083126B14080061
:100F7400583083160313C1000230C2009030C300FE
:080F84000130C4003523080010
:100F8C0023308400443083120313F0005730E70001
:080F9C000A30E8006B27080091
:101000008316031387100710071187110712871221
:1010100083128710071087120712871107118A1190
:1010200030208A158A1130208A158A1130208A15BD
:101030008715071587148A112E208A1587108A11A3
:1010400030208A1587148A112E208A1587108A115C
:1010500030208A1587148A112E208A1587108A114C
:1010600030208A15071187148A112E208A158710BF
:101070008A1130208A1587148A112E208A1587102C
:101080008711871687148A112E208A1587108A11D6
:1010900030208A158712071587148A112E208A1589
:1010A0008710071187148A112E208A1587108A113C
:1010B00030208A1587148A112E208A15871007156B
:1010C00087148A112E208A1587108A1130208A15DC
:1010D000071187148A112E208A1587108716071684
:1010E0008715071587148A112E208A1587108A11F3
:0810F00030208A156B14080082
:1010F8008A11C6278A158316031306100616870158
:1011080088010830B400B5018A114A278A15E830E9
:10111800C1000330C2006430C3000030C4008A112B
:1011280035238A15002001308316CD008A114E22FE
:101138008A150C308316CD008A114E228A1501308B
:101148008316B4000130B5002330B6008A11772722
:101158008A150630FB001330FC00AD30FD00FD0B96
:10116800B328FC0BB328FB0BB328000000000130A8
:101178008316CD008A114E228A1501308316B400D9
:101188000130B5003930B6008A1177278A15023048
:101198008316B4000130B5002F30B6008A117727C6
:1011A8008A150630FB001330FC00AD30FD00FD0B46
:1011B800DB28FC0BDB28FB0BDB28000000000130E0
:1011C8008316CD008A114E228A158B178B151010A5
:1011D800901090121016E901EA018316A001A101EE
:1011E800A201A301831206140330FD00FD0BFA28A7
:1011F8000610061A0029FD281014061E04290129C4
:1012080010106908F0006A08F1008A11F6248A159E
:101218009630F4004330F5000B30F6007930F700D3
:101228008A117E248A1570088316A0007108A1000F
:101238007208A2007308A3000030F4000030F50023
:101248000030F6008030F7008A1113248A15013027
:10125800031C0030F000700803192E2A831620089A
:10126800F4002108F5002208F6002308F7000030F2
:10127800F0000030F1004830F2008830F3008A11A5
:1012880013248A150130031C0030F000700803197C
:101298002E2A02308316B4000730B5005430B60049
:1012A8008A1177278A1501308316B4000130B500FA
:1012B8004C30B6008A1177278A1583162008B400A7
:1012C8002108B5002208B6002308B700A430B800EA
:1012D8008A1138258A15A430B4008A110C258A157C
:1012E800A9010230B4000130B500A430B6008A115B
:1012F80077278A1583162008F4002108F5002208AC
:10130800F6002308F7000030F0000030F100253027
:10131800F2008630F3008A1113248A150130031C69
:101328000030F00070080319B82983162008F4006B
:101338002108F5002208F6002308F7000030F00025
:101348000030F1005C30F2008530F3008A1113247C
:101358008A15013003180030F00070080319B82905
:101368008A11DF248A152D2A831603132008F40016
:101378002108F5002208F6002308F7000030F000E5
:101388000030F1005C30F2008530F3008A1113243C
:101398008A150130031C0030F00070080319F32986
:1013A80083162008F4002108F5002208F600230817
:1013B800F7000030F0000030F1005C30F2008430BB
:1013C800F3008A1113248A15013003180030F00045
:1013D80070080319F3298A11BA278A152D2A83164A
:1013E80003132008F4002108F5002208F60023085A
:1013F800F7000030F0000030F1005C30F20084307B
:10140800F3008A1113248A150130031C0030F00000
:10141800700803192D2A83162008F4002108F50006
:101428002208F6002308F7000030F0000030F10031
:101438000030F2008030F3008A1113248A1501303D
:1014480003180030F000700803192D2A8A113E276E
:101458008A15422A013083160313CD008A114E22C1
:101468008A1501308316B4000130B5005B30B60030
:101478008A1177278A158A11EA248A15033083127C
:101488000313FB008A30FC005530FD00FD0B4A2A8F
:10149800FC0B4A2AFB0B4A2A00000000F628532AB4
:1014AE0048344F345334473445344C34443449343F
:0814BE004E3449345A34003465
:1014C60031343734303434343234313438343234DD
:0414D6003934003471
:1014DA004634453452344834413454345F345934F0
:0A14EA0041344D3441344E340034D7
:0814F40049344E344634003443
:0414FC003034003454
:101500004D34653473346134663465343A340034B0
:0615100063346D34003469
:081516004E3461344E34003400
:10151E004B3441345A3441342034593441345034EC
:08152E00543449344B340034FD
:02400E004A2F37
:00000001FF
